:020000040800F2
:1000000000500020C51600084D16000855160008BF
:100010005D160008651600086D1600080000000057
:10002000000000000000000000000000751600083D
:1000300081160008000000008D16000899160008BF
:100040000D1700080D1700080D1700080D17000800
:100050000D1700080D1700080D1700080D170008F0
:100060000D1700080D1700080D1700080D170008E0
:100070000D170008A51600080D1700080D17000839
:100080000D1700080D1700080D1700080D170008C0
:100090000D1700080D1700080D1700080D170008B0
:1000A0000D1700080D1700080D1700080D170008A0
:1000B0000D1700080D1700080D1700080D17000890
:1000C0000D1700080D1700080D1700080D17000880
:1000D0000D1700080D1700080D1700080D17000870
:1000E0000D1700080D1700080D170008000000008C
:1000F0000000000000000000000000000000000000
:0C01000000000000000000005FF808F1A3
:10010C0010B5054C237833B9044B13B10448AFF345
:10011C0000800123237010BD180000200000000097
:10012C00A034000808B5034B1BB103490348AFF3D7
:10013C00008008BD000000001C000020A034000856
:10014C0080B500AF1C4B1B684FF482725A601A4B7F
:10015C001B6800229A60184B1B680022DA60164B51
:10016C001B6800221A61144B1B6800225A61124B47
:10017C001B684FF400729A610F4B1B682822DA61DE
:10018C000D4B1B6800221A620B4B1B6800225A6233
:10019C00094B1B6800229A62074B1B680A22DA6221
:1001AC00054B1B68184602F0C1FB0346002B01D01F
:1001BC0000F061FB00BF80BD3C00002080B500AFAB
:1001CC0000224FF40061024801F0B9FF00BF80BD6E
:1001DC00000C014080B500AF01224FF400610248D1
:1001EC0001F0ADFF00BF80BD000C014080B400AF3A
:1001FC000B4B1B78012B04D1094B02221A700123E3
:10020C000AE0074B1B78042B04D1054B00221A7013
:10021C00042301E0024B1B781846BD4680BC704796
:10022C004000002080B485B000AFF860084611464D
:10023C001A460346FB720B463B811346FB80084A69
:10024C00FB681360074AFB7A1370074A3B891380DB
:10025C00064AFB88138000BF1437BD4680BC70472C
:10026C003C00002034000020360000203800002024
:10027C0080B5A2B002AF78604E4B1A6807F1140338
:10028C0011465822184603F0F7F8FFF759FFFFF70D
:10029C0095FF0023FB670023BB67002387F87730AB
:1002AC00002387F8763047E04FF40051424801F0C4
:1002BC002FFF0346012B44D03E4B18684FF0FF3301
:1002CC0001223E4902F0B6FB3A4B186807F11002C6
:1002DC004FF0FF3300930223394902F0EFFC354B0A
:1002EC0018684FF0FF330122364902F0A3FB314B63
:1002FC00186807F10C024FF0FF33009302233049CA
:10030C0002F0DCFC3B7C1B027A7C13431A46BB6F6D
:10031C001344BB673B7B1B027A7B13431A46FB6F70
:10032C001344FB6797F87730013387F8773097F8E9
:10033C007630013387F8763097F876300F2BB3D9B7
:10034C0000E000BFFFF746FF1A4B1B68184607F189
:10035C0014035822194603F08FF8164B1B681846E5
:10036C0002F0E4FA0346002B01D000F084FA97F86F
:10037C007730072B2CD8144B1B78002B09D1134B3F
:10038C0000221A717B68114A1068186092889A8052
:10039C000AE10D4B04221A70FFF728FF03461A4698
:1003AC000A4B1A717B68094A1068186092889A8007
:1003BC00FAE000BF3C000020000C01405C35000856
:1003CC00603500086435000840000020440000201F
:1003DC00774B1B78002B07D1754B01221A7001F05B
:1003EC00E9F90346734A1360714B1B78022B0CD14D
:1003FC0001F0E0F902466F4B1B68D31A40F6C412A9
:10040C00934202D96A4B03221A7097F87730FA6F2D
:10041C00B2FBF3F33B6797F87730BA6FB2FBF3F3A9
:10042C00FB663B6F40F2DB52934202D840F2DC5346
:10043C003B673B6F47F23052934202D947F230533D
:10044C003B67FB6EB3F5E16F02D24FF4E163FB66E1
:10045C00FB6E47F24812934202D947F24813FB66EF
:10046C00554B1B78002B21D1544B1A88FB6EA3F5EE
:10047C00E1635249098801FB03F39B095049A1FB35
:10048C0003135B089BB2D31A9AB24E4B5A803B6F44
:10049C00A3F2DC534C4A128802FB03F39B084B4A31
:1004AC00A2FB03235B0A9AB2464B1A80424B1B7881
:1004BC00022B21D1FB6EA3F5E163404A128802FBAB
:1004CC0003F39B093E4AA2FB03235B089AB23D4B04
:1004DC005A803D4B1A883B6FA3F2DC533A4909888A
:1004EC0001FB03F39B083949A1FB03135B0A9BB285
:1004FC00D31A9AB2334B1A802F4B1B78012B1DD178
:10050C00FB6EA3F5E1632D4A128802FB03F39B09F2
:10051C002B4AA2FB03235B089AB22A4B1A803B6F2F
:10052C00A3F2DC53284A128802FB03F39B08274AE8
:10053C00A2FB03235B0A9AB2224B5A801E4B1B78F8
:10054C00032B25D11D4B1A88FB6EA3F5E1631B49C8
:10055C00098801FB03F39B091949A1FB03135B08F1
:10056C009BB2D31A9AB2174B1A80174B1A883B6F4F
:10057C00A3F2DC531449098801FB03F39B081349CC
:10058C00A1FB03135B0A9BB2D31A9AB20D4B5A8090
:10059C00FFF72CFE03461A460A4B1A717B68094A70
:1005AC001068186092889A8078688037BD4680BD44
:1005BC00400000204C0000203400002038000020B7
:1005CC009B6734014400002036000020DB64651278
:1005DC0080B582B000AF0C4B5B690B4A43F0010352
:1005EC005361094B5B6903F001037B607B6800225C
:1005FC0000210D2001F0E3F90D2001F0FCF900BF02
:10060C000837BD4680BD00BF0010024080B588B0E1
:10061C0000AF07F1100300221A605A609A60DA608A
:10062C00244B9B69234A43F020039361214B9B6924
:10063C0003F02003FB60FB681E4B9B691D4A43F0D3
:10064C00040393611B4B9B6903F00403BB60BB6801
:10065C00184B9B69174A43F008039361154B9B6930
:10066C0003F008037B607B68012241F603411248CA
:10067C0001F065FD41F603433B6101237B610023DF
:10068C00BB610323FB6107F1100319460A4801F013
:10069C00BBFB4FF400533B6100237B610023BB6128
:1006AC0007F110031946044801F0AEFB00BF2037D8
:1006BC00BD4680BD00100240000C014090B587B0D3
:1006CC0004AF01F01FF800F091F8FFF79FFFFFF760
:1006DC007FFF00F0D7F801224FF480513E4801F023
:1006EC002EFD00F099FA3D4B002202924FF6FF725C
:1006FC0001925A6800921B68394A1421142000F0A8
:10070C00D9FD4FF4784300933C23EF223C21002089
:10071C0000F09CFB4FF4784300933D23EF223D21E6
:10072C00002000F093FB4FF4FC630093A0238C2279
:10073C005021142000F016FC4FF6FF730093502349
:10074C0082225021AA2000F009FE4FF6E0731E22EF
:10075C00C821502000F04AFC1F231E22C821C820AB
:10076C0000F056FEF0234FF4A07200211D48FFF755
:10077C0059FD4FF40051184801F0CAFC0346002BF8
:10078C0026D1194C3B461846FFF772FD22463B46D4
:10079C00186810609B889380134B1B88C3F59F735C
:1007AC0001339AB2104B1A800F4B1B88B3F5A07F04
:1007BC000ED20D4B5B88EF2B0AD80B4B1B8818B253
:1007CC00094B5B8819B24FF4FC63062200F020FE43
:1007DC000A2000F0F9FFCCE7000C014000000020DB
:1007EC00B8340008580000205000002080B590B0AC
:1007FC0000AF07F1180328220021184602F00FFE63
:10080C003B1D00221A605A609A60DA601A6101235B
:10081C00BB614FF48033FB6100233B620123BB625D
:10082C0002237B634FF48033BB634FF4E013FB6311
:10083C0007F11803184601F09BFC0346002B01D06E
:10084C0000F019F80F237B600223BB600023FB60D0
:10085C004FF480633B6100237B613B1D02211846F2
:10086C0001F008FF0346002B01D000F004F800BF94
:10087C004037BD4680BD80B400AF72B600BF00BF2C
:10088C00FDE7000080B500AF174B184A1A60164BF5
:10089C004FF482725A60144B00229A60124B002261
:1008AC00DA60114B00221A610F4B00225A610E4B79
:1008BC004FF400729A610C4B1022DA610A4B002241
:1008CC001A62094B00225A62074B00229A62064BAD
:1008DC000A22DA62044802F029F80346002B01D000
:1008EC00FFF7C9FF00BF80BD580000200030014059
:1008FC0080B588B000AF786007F1100300221A6051
:10090C005A609A60DA607B681B682F4A934256D112
:10091C002E4B9B692D4A43F4805393612B4B9B695F
:10092C0003F48053FB60FB68284B9B69274A43F018
:10093C0004039361254B9B6903F00403BB60BB6804
:10094C00A0233B6102237B610323FB6107F11003AE
:10095C0019461F4801F058FA40233B6100237B6184
:10096C000023BB6107F110031946194801F04CFA3A
:10097C00184B194A1A60174B10225A60154B00225B
:10098C009A60144B8022DA60124B00221A61114BD0
:10099C0000225A610F4B00229A610E4B4FF4805289
:1009AC00DA610C4801F042F80346002B01D0FFF746
:1009BC0062FF7B68074A9A64064A7B68536200BFF1
:1009CC002037BD4680BD00BF003001400010024002
:1009DC0000080140B00000203000024080B582B019
:1009EC0000AF0346FB71002201210C4801F0A7FB6C
:1009FC0000220221094801F0A2FBF91D4FF0FF3340
:100A0C000122074802F016F801220121034801F0E7
:100A1C0096FB00BF0837BD4680BD00BF000C0140EF
:100A2C005800002080B584B000AF78603960002297
:100A3C000121204801F083FB012202211D4801F015
:100A4C007EFB2AE03B684FF6FF72934228BF1346A9
:100A5C00FB81194B1B881A463B6893420ED3FB89CA
:100A6C001A467968154802F0D3FA00BF134B9B6CF9
:100A7C0093F82130DBB2012BF8D106E0FA894FF064
:100A8C00FF3379680D4801F0D5FFFB897A68134470
:100A9C007B60FB893A68D31A3B603B68002BD1D151
:100AAC0001220121034801F04AFB00BF1037BD466B
:100ABC0080BD00BF000C0140080000205800002041
:100ACC0080B582B000AF0346FB71002201210C48B7
:100ADC0001F035FB01220221094801F030FBF91D20
:100AEC004FF0FF330122074801F0A4FF012201213E
:100AFC00034801F024FB00BF0837BD4680BD00BF92
:100B0C00000C01405800002080B582B000AF0346B5
:100B1C00FB713620FFF762FFFB79032B1AD801A279
:100B2C0052F823F0410B0008490B0008510B000848
:100B3C00590B0008C020FFF7C3FF0CE0A020FFF703
:100B4C00BFFF08E00020FFF7BBFF04E06020FFF7C9
:100B5C00B7FF00E000BF00BF0837BD4680BD00BF37
:100B6C0090B587B000AF0446084611461A46234696
:100B7C00FB800346BB800B467B8013463B800022E8
:100B8C000121244801F0DBFAFB88FB827B88BB82C5
:100B9C00BB887B823B883B822A20FFF71FFFFB8AA6
:100BAC001B0A9BB2DBB23B73FB8ADBB27B73BB8A47
:100BBC001B0A9BB2DBB2BB73BB8ADBB2FB7307F1C4
:100BCC000C0304211846FFF72DFF2B20FFF706FF1F
:100BDC007B8A1B0A9BB2DBB23B727B8ADBB27B72D9
:100BEC003B8A1B0A9BB2DBB2BB723B8ADBB2FB7249
:100BFC0007F1080304211846FFF714FF2C20FFF718
:100C0C00EDFE01220121034801F099FA00BF1C37C7
:100C1C00BD4690BD000C014090B58BB000AF4FF4B9
:100C2C00486200214B4802F0FAFB0A2000F0CCFD90
:100C3C0000224FF48061484801F081FA0A2000F04C
:100C4C00C3FD01224FF48061434801F078FA14206F
:100C5C0000F0BAFD3A20FFF7C1FE5520FFF730FF38
:100C6C00B220FFF7BBFE3D4A07F1200392E80300D8
:100C7C0018600433197007F1200305211846FFF79B
:100C8C00D1FE0120FFF740FFB720FFF7A7FE35206C
:100C9C00FFF716FFBB20FFF7A1FE1920FFF710FF8F
:100CAC00C020FFF79BFE2C20FFF70AFFC220FFF7A6
:100CBC0095FE0120FFF704FFC320FFF78FFE1220E3
:100CCC00FFF7FEFEC420FFF789FE2020FFF7F8FE99
:100CDC00C620FFF783FE0F20FFF7F2FED020FFF7B0
:100CEC007DFEA420FFF7ECFEA120FFF7E9FEE0203B
:100CFC00FFF774FE1A4B07F110040FCB07C42380C7
:100D0C0007F110030E211846FFF78CFEE120FFF7C8
:100D1C0065FE144B3C460FCB07C423803B460E218B
:100D2C001846FFF77FFE2020FFF758FE1120FFF733
:100D3C0055FE1320FFF752FE2920FFF74FFE3220FD
:100D4C0000F042FD002000F00FF800BF2C37BD462C
:100D5C0090BD00BFF4000020000C0140C43400081A
:100D6C00CC340008DC34000880B584B000AF0346F6
:100D7C00FB80EF2340F23F1200210020FFF7F0FE32
:100D8C0000220121144801F0DAF90023FB8116E05E
:100D9C000023BB6007E01149BB68FA8821F81320D7
:100DAC00BB680133BB60BB68B3F5C86FF3D34FF4BA
:100DBC0048610A48FFF736FEFB890133FB81FB894A
:100DCC002F2BE5D901220121034801F0B8F900BF0E
:100DDC001037BD4680BD00BF000C0140F400002060
:100DEC0080B584B000AF0346FB800B46BB80134636
:100DFC007B80FB88B3F5A07F21D2BB88EF2B1ED85C
:100E0C00BB88FA88B988F888FFF7AAFE7B881B0A8A
:100E1C009BB2DBB23B737B88DBB27B73002201217C
:100E2C00094801F08CF907F10C0302211846FFF771
:100E3C00F9FD01220121044801F081F900E000BF15
:100E4C001037BD4680BD00BF000C014090B587B087
:100E5C0000AF0446084611461A462346FB8003465B
:100E6C00BB800B467B8013463B803A88BB88D31AE9
:100E7C0083EAE372A2EBE3727988FB88CB1A002B2E
:100E8C00B8BF5B429A42CCBF01230023DBB27B820A
:100E9C007B8A002B0BD0FB883B82BB88FB803B8A78
:100EAC00BB807B883B823B887B803B8A3B80FA887B
:100EBC007B889A420BD9FB883B827B88FB803B8AE0
:100ECC007B80BB883B823B88BB803B8A3B807A889B
:100EDC00FB88D31A9BB2FB813A88BB88D31A002BB0
:100EEC00B8BF5B42BB81B7F90E30DA0F13445B100D
:100EFC00FB82BA883B889A4202D20123BB8228E04B
:100F0C004FF6FF73BB8224E07B8A002B06D03A8D10
:100F1C00F988BB881846FFF763FF05E03A8DB9885E
:100F2C00FB881846FFF75CFFFA8ABB89D31A9BB281
:100F3C00FB82B7F91630002B08DABA8ABB88134447
:100F4C00BB80FA8AFB8913449BB2FB82FB8801337A
:100F5C00FB80FA887B889A42D6D900BF00BF1C3729
:100F6C00BD4690BD90B585B002AF0446084611460B
:100F7C001A462346FB800346BB800B467B801346F8
:100F8C003B8000220121184801F0D9F8BC887A88EE
:100F9C00B988F8883B8B00932346FFF757FF3C88B2
:100FAC00FA88B988F8883B8B00932346FFF74EFFED
:100FBC003C887A883988F8883B8B00932346FFF766
:100FCC0045FF3C887A88B98878883B8B0093234608
:100FDC00FFF73CFF01220121034801F0B0F800BFEC
:100FEC000C37BD4690BD00BF000C014090B587B0DA
:100FFC0000AF0446084611461A462346FB800346BA
:10100C00BB800B46FB7013463B80FB789BB2C3F155
:10101C0001039BB2FB820123BB82FB789BB21A4675
:10102C00D203D31A5B009BB27B8200233B82FB78FA
:10103C00FB81002201215F4801F081F8FB789AB214
:10104C00BB88134499B23A88FB881846FFF7C8FE50
:10105C00FB789BB2BA88D31A99B23A88FB881846A7
:10106C00FFF7BEFEFB789AB2FB8813449BB23A881A
:10107C00B9881846FFF7B4FEFB789BB2FA88D31AEE
:10108C009BB23A88B9881846FFF7AAFE81E0B7F9F7
:10109C001630002B0EDBB7F90E309BB2013B9BB226
:1010AC00FB817B8A02339BB27B82FA8A7B8A134454
:1010BC009BB2FB82B7F910309BB201339BB23B82DF
:1010CC00BB8A02339BB2BB82FA8ABB8A13449BB2A3
:1010DC00FB823A8AFB88134498B2FA89BB88134482
:1010EC009BB23A881946FFF77BFE3B8AFA88D31AE3
:1010FC0098B2FA89BB8813449BB23A881946FFF719
:10110C006FFE3A8AFB88134498B2FB89BA88D31ACB
:10111C009BB23A881946FFF763FE3B8AFA88D31ACA
:10112C0098B2FB89BA88D31A9BB23A881946FFF752
:10113C0057FEFA89FB88134498B23A8ABB88134449
:10114C009BB23A881946FFF74BFEFB89FA88D31AF3
:10115C0098B23A8ABB8813449BB23A881946FFF777
:10116C003FFEFA89FB88134498B23B8ABA88D31A9B
:10117C009BB23A881946FFF733FEFB89FA88D31ADB
:10118C0098B23B8ABA88D31A9BB23A881946FFF7B1
:10119C0027FEB7F91020B7F90E309A42FFF677AF59
:1011AC0001220121034800F0CAFF00BF1C37BD46D5
:1011BC0090BD00BF000C014082B080B588B000AF7C
:1011CC00FB620346FB800B46BB801346FB70002280
:1011DC000121374800F0B3FF97F82C301A46FB88F2
:1011EC0013449BB2013B9AB297F82D301946BB8839
:1011FC000B449BB2013B9BB2B988F888FFF7B0FC5B
:10120C000023FB6141E03A6BFB78203B97F82D10F3
:10121C0001FB03F31946FB690B445B0013441B8869
:10122C007B610023BB6127E07A69BB6902FA03F397
:10123C0003F40043002B0ED0BB8E1B0A9BB2DBB217
:10124C003B74BB8EDBB27B7407F110030221184692
:10125C00FFF7E8FB0DE03B8F1B0A9BB2DBB23B7345
:10126C003B8FDBB27B7307F10C0302211846FFF7AF
:10127C00D9FBBB690133BB6197F82C301A46BB69AB
:10128C009342D1D3FB690133FB6197F82D301A4699
:10129C00FB699342B7D301220121054800F04FFFAF
:1012AC0000BF2037BD46BDE8804002B0704700BF8C
:1012BC00000C014082B080B586B004AF3A607B610F
:1012CC000346FB800B46BB8000220121224800F024
:1012DC0036FF2EE0FB883A7D1344B3F5A07F13DB79
:1012EC000023FB807B7D1A46BB881344BB80BB88E4
:1012FC007A7D1344EF2B21DC3B681B78202B03D128
:10130C003B6801333B6014E03B681A78B988F88875
:10131C003B8C0293BB8B0193BB6900937B69FFF7FA
:10132C004BFF3B7D1A46FB881344FB803B68013323
:10133C003B603B681B78002BCCD100E000BF012246
:10134C000121054800F0FBFE00BF0837BD46BDE893
:10135C00804002B0704700BF000C014090B587B0D0
:10136C0002AF0446084611461A462346FB80034644
:10137C00BB800B467B8013463B8000220121234817
:10138C0000F0DDFEFB88B3F5A07F3BD2BB88EF2BD2
:10139C0038D8FA887B881344B3F5A07F03DBFB882D
:1013AC00C3F5A0737B80BA883B881344EF2B03DD15
:1013BC00BB88C3F1F0033B800023FB7317E0FB7B7E
:1013CC009AB2BB88134499B2FA887B8813449CB2B6
:1013DC00FB7B9AB2BB8813449AB2F8883B8C00937F
:1013EC0013462246FFF732FDFB7B0133FB73FB7B7D
:1013FC009BB23A889A42E2D201220121034800F0C2
:10140C009EFE00E000BF1437BD4690BD000C0140AD
:10141C0090B589B002AF0446084611461A462346D9
:10142C00FB800346BB800B467B8013463B8000222F
:10143C000121694800F083FE7B88C3F101039BB254
:10144C00FB820123BB827B881A46D203D31A5B0032
:10145C009BB27B8200233B827B88FB81F888BA8815
:10146C007B8813449BB23A881946FFF7B9FCF8887D
:10147C00BA887B88D31A9BB23A881946FFF7B0FC1E
:10148C00FA887B8813449BB2B9883A881846FFF7D0
:10149C00A7FCFA887B88D31A9BB2B9883A8818467D
:1014AC00FFF79EFCFA887B88D31A98B2B988FA8821
:1014BC007B8813449AB2BC883B8800932346FFF781
:1014CC00C5FC79E0B7F91630002B0EDBB7F90E30FE
:1014DC009BB2013B9BB2FB817B8A02339BB27B822A
:1014EC00FA8A7B8A13449BB2FB82B7F910309BB209
:1014FC0001339BB23B82BB8A02339BB2BB82FA8A1A
:10150C00BB8A13449BB2FB82FA883B8AD31A98B2EB
:10151C00BA88FB89134499B2FA883B8A13449CB26B
:10152C00BA88FB8913449AB23B880093134622462F
:10153C00FFF78CFCFA883B8A134498B2BA88FB8973
:10154C00D31A99B2FA883B8AD31A9CB2BA88FB890F
:10155C00D31A9AB23B88009313462246FFF776FCC7
:10156C00FA88FB89134498B2BA883B8A134499B21F
:10157C00FA88FB89D31A9CB2BA883B8A13449AB274
:10158C003B88009313462246FFF760FCFA88FB89E0
:10159C00134498B2BA883B8AD31A99B2FA88FB8959
:1015AC00D31A9CB2BA883B8AD31A9AB23B8800935E
:1015BC0013462246FFF74AFCB7F91020B7F90E3054
:1015CC009A42FFF67FAF01220121034800F0B7FDDC
:1015DC0000BF1C37BD4690BD000C014080B485B0E7
:1015EC0000AF154B9B69144A43F001039361124BF6
:1015FC009B6903F00103BB60BB680F4BDB690E4AB0
:10160C0043F08053D3610C4BDB6903F080537B6058
:10161C007B680A4B5B68FB60FB6823F0E063FB6054
:10162C00FB6843F08063FB60044AFB68536000BFB7
:10163C001437BD4680BC70470010024000000140CA
:10164C0080B400AF00BFFDE780B400AF00BFFDE782
:10165C0080B400AF00BFFDE780B400AF00BFFDE772
:10166C0080B400AF00BFFDE780B400AF00BFBD4643
:10167C0080BC704780B400AF00BFBD4680BC7047D3
:10168C0080B400AF00BFBD4680BC704780B500AFD2
:10169C0000F07EF800BF80BD80B500AF024800F0BE
:1016AC007FFA00BF80BD00BFB000002080B400AF47
:1016BC0000BFBD4680BC7047FFF7F8FF0B480C49D4
:1016CC000C4A002302E0D458C4500433C4188C4292
:1016DC00F9D3094A094C002301E013600432A242F9
:1016EC00FBD301F0A5FEFEF7E9FF704700000020D8
:1016FC0018000020E048000818000020780D002099
:10170C00FEE7000080B500AF084B1B68074A43F0AA
:10171C0010031360032000F047F90F2000F008F8C5
:10172C00FFF75CFF0023184680BD00BF002002407D
:10173C0080B582B000AF7860124B1A68124B1B78E0
:10174C0019464FF47A73B3FBF1F3B2FBF3F318467B
:10175C0000F05FF90346002B01D001230EE07B68FB
:10176C000F2B0AD8002279684FF0FF3000F027F9D0
:10177C00064A7B681360002300E0012318460837F3
:10178C00BD4680BD0C00002014000020100000207D
:10179C0080B400AF054B1B781A46054B1B681344ED
:1017AC00034A136000BFBD4680BC70471400002084
:1017BC00740D002080B400AF024B1B681846BD4668
:1017CC0080BC7047740D002080B584B000AF786089
:1017DC00FFF7F0FFB8607B68FB60FB68B3F1FF3F7D
:1017EC0005D00A4B1B781A46FB681344FB6000BFFC
:1017FC00FFF7E0FF0246BB68D31AFA689A42F7D8A3
:10180C0000BF00BF1037BD4680BD00BF14000020D4
:10181C0080B485B000AF78607B6803F00703FB6091
:10182C000C4BDB68BB60BA684FF6FF031340BB6020
:10183C00FB681A02BB68134343F0BF6343F40033E5
:10184C00BB60044ABB68D36000BF1437BD4680BC84
:10185C00704700BF00ED00E080B400AF044BDB68C4
:10186C001B0A03F007031846BD4680BC704700BF37
:10187C0000ED00E080B483B000AF0346FB7197F934
:10188C000730002B0BDBFB7903F01F02064997F99D
:10189C0007305B09012000FA02F241F8232000BF57
:1018AC000C37BD4680BC704700E100E080B483B0CB
:1018BC0000AF03463960FB7197F90730002B0ADB48
:1018CC003B68DAB20C4997F907301201D2B20B44DB
:1018DC0083F800230AE03B68DAB20849FB7903F08D
:1018EC000F03043B1201D2B20B441A7600BF0C3723
:1018FC00BD4680BC704700BF00E100E000ED00E099
:10190C0080B489B000AFF860B9607A60FB6803F00E
:10191C000703FB61FB69C3F10703042B28BF0423F6
:10192C00BB61FB690433062B02D9FB69033B00E066
:10193C0000237B614FF0FF32BB6902FA03F3DA43F9
:10194C00BB681A407B699A404FF0FF317B6901FA02
:10195C0003F3D9437B680B40134318462437BD4629
:10196C0080BC704780B582B000AF78607B68013B6B
:10197C00B3F1807F01D301230FE00A4A7B68013B5E
:10198C0053600F214FF0FF30FFF790FF054B002203
:10199C009A60044B07221A60002318460837BD468C
:1019AC0080BD00BF10E000E080B582B000AF786071
:1019BC007868FFF72DFF00BF0837BD4680BD80B5A6
:1019CC0086B000AF0346B9607A60FB7300237B617D
:1019DC00FFF742FF78617A68B9687869FFF790FF82
:1019EC00024697F90F3011461846FFF75FFF00BF0C
:1019FC001837BD4680BD80B582B000AF0346FB7181
:101A0C0097F907301846FFF735FF00BF0837BD467A
:101A1C0080BD80B582B000AF78607868FFF7A2FF18
:101A2C00034618460837BD4680BD000080B485B01B
:101A3C0000AF78600023FB607B68002B01D1012391
:101A4C0043E07B681B681A46224B1344224AA2FBD4
:101A5C0003231B099A007B681A647B681F4ADA63AC
:101A6C007B68022283F821207B681B681B68FB6063
:101A7C00FB6823F47F5323F03003FB607B685A68C8
:101A8C007B689B681A437B68DB681A437B681B691D
:101A9C001A437B685B691A437B689B691A437B68B2
:101AAC00DB691343FA681343FB607B681B68FA68B5
:101ABC001A607B6800229A637B68012283F82120DC
:101ACC007B68002283F82020002318461437BD467B
:101ADC0080BC7047F8FFFDBFCDCCCCCC00000240E1
:101AEC0080B586B000AFF860B9607A603B600023C7
:101AFC00FB75FB6893F82030012B01D102234BE0DE
:101B0C00FB68012283F82020FB6893F82130DBB2BC
:101B1C00012B3AD1FB68022283F82120FB680022BA
:101B2C009A63FB681B681A68FB681B6822F0010249
:101B3C001A603B687A68B968F86800F037F9FB6896
:101B4C00DB6A002B08D0FB681B681A68FB681B68F3
:101B5C0042F00E021A600FE0FB681B681A68FB6803
:101B6C001B6822F004021A60FB681B681A68FB6889
:101B7C001B6842F00A021A60FB681B681A68FB6853
:101B8C001B6842F001021A6005E0FB68002283F832
:101B9C0020200223FB75FB7D18461837BD4680BDFF
:101BAC0080B584B000AF78607B68DB6B1B68FB6032
:101BBC007B681B681B68BB607B681B6C04229A40AB
:101BCC00FB681340002B4FD0BB6803F00403002BC1
:101BDC004AD07B681B681B6803F02003002B07D1DD
:101BEC007B681B681A687B681B6822F004021A6009
:101BFC007B681B68664A934229D07B681B68654AE0
:101C0C00934222D07B681B68634A93421AD07B684C
:101C1C001B68624A934212D07B681B68604A9342ED
:101C2C000AD07B681B685F4A934202D14FF4800351
:101C3C000EE04FF080630BE04FF4802308E04FF48C
:101C4C00804305E04FF4806302E0402300E004236E
:101C5C00554A53607B68DB6A002B00F094807B68EC
:101C6C00DB6A786898478EE07B681B6C02229A408E
:101C7C00FB681340002B56D0BB6803F00203002B0B
:101C8C0051D07B681B681B6803F02003002B0BD121
:101C9C007B681B681A687B681B6822F00A021A6052
:101CAC007B68012283F821207B681B68384A9342A9
:101CBC0029D07B681B68374A934222D07B681B680B
:101CCC00354A93421AD07B681B68344A934212D02F
:101CDC007B681B68324A93420AD07B681B68314A86
:101CEC00934202D14FF400130EE04FF000730BE05F
:101CFC004FF4003308E04FF4005305E04FF4007349
:101D0C0002E0202300E00223274A53607B68002274
:101D1C0083F820207B689B6A002B34D07B689B6AFD
:101D2C00786898472FE07B681B6C08229A40FB6808
:101D3C001340002B28D0BB6803F00803002B23D0E2
:101D4C007B681B681A687B681B6822F00E021A609D
:101D5C007B681A6C7B68DB6B012101FA02F25A601A
:101D6C007B6801229A637B68012283F821207B68BF
:101D7C00002283F820207B681B6B002B04D07B682F
:101D8C001B6B7868984700BF00BF1037BD4680BDFD
:101D9C00080002401C000240300002404400024097
:101DAC00580002406C0002400000024080B485B034
:101DBC0000AFF860B9607A603B60FB681A6CFB6836
:101DCC00DB6B012101FA02F25A60FB681B683A686E
:101DDC005A60FB685B68102B08D1FB681B687A683B
:101DEC009A60FB681B68BA68DA6007E0FB681B68DE
:101DFC00BA689A60FB681B687A68DA6000BF1437AF
:101E0C00BD4680BC7047000080B48BB000AF7860DA
:101E1C00396000237B6200233B6269E101227B6A0B
:101E2C0002FA03F3FB613B681B68FA691340BB6160
:101E3C00BA69FB699A4240F058813B685B689A4AE0
:101E4C0093425ED0984A934275D8984A934258D0A0
:101E5C00964A93426FD8964A934252D0944A9342F0
:101E6C0069D8944A93424CD0924A934263D8924A8E
:101E7C00934246D0904A93425DD8122B2AD8122B0B
:101E8C0059D801A252F823F00F1F0008E91E0008D0
:101E9C00FB1E00083D1F0008431F0008431F0008DD
:101EAC00431F0008431F0008431F0008431F00087E
:101EBC00431F0008431F0008431F0008431F00086E
:101ECC00431F0008431F0008431F0008F11E0008B1
:101EDC00051F0008794A934213D02CE03B68DB685D
:101EEC003B6229E03B68DB6804333B6224E03B68DF
:101EFC00DB6808333B621FE03B68DB680C333B62FA
:101F0C001AE03B689B68002B02D104233B6213E070
:101F1C003B689B68012B05D108233B627B68FA69FF
:101F2C001A6109E008233B627B68FA695A6103E095
:101F3C0000233B6200E000BFBB69FF2B01D87B682C
:101F4C0001E07B6804337B61BB69FF2B02D87B6AA1
:101F5C009B0002E07B6A083B9B003B617B691A6833
:101F6C000F213B6901FA03F3DB431A40396A3B69E1
:101F7C0001FA03F31A437B691A603B685B6803F050
:101F8C008053002B00F0B1804D4B9B694C4A43F0C1
:101F9C00010393614A4B9B6903F00103BB60BB686F
:101FAC00484A7B6A9B08023352F82330FB607B6AF9
:101FBC0003F003039B000F2202FA03F3DB43FA68DE
:101FCC001340FB607B68404A934213D07B683F4AC6
:101FDC0093420DD07B683E4A934207D07B683D4AC2
:101FEC00934201D1032306E0042304E0022302E020
:101FFC00012300E000237A6A02F00302920093406E
:10200C00FA681343FB602F497B6A9B080233FA681A
:10201C0041F823203B685B6803F48013002B06D047
:10202C002D4B9A682C49BB6913438B6006E02A4BF5
:10203C009A68BB69DB43284913408B603B685B683B
:10204C0003F40013002B06D0234BDA682249BB693A
:10205C001343CB6006E0204BDA68BB69DB431E49B7
:10206C001340CB603B685B6803F40033002B06D055
:10207C00194B5A681849BB6913434B6006E0164B61
:10208C005A68BB69DB43144913404B603B685B687F
:10209C0003F48033002B21D00F4B1A680E49BB6917
:1020AC0013430B6021E000BF000032100000311020
:1020BC00000022100000211000001210000011106E
:1020CC00001002400000014000080140000C0140DB
:1020DC000010014000140140000401400B4B1A6831
:1020EC00BB69DB43094913400B607B6A01337B629C
:1020FC003B681A687B6A22FA03F3002B7FF48EAEDE
:10210C0000BF00BF2C37BD4680BC704700040140A7
:10211C0080B485B000AF78600B467B807B689A6892
:10212C007B881340002B02D00123FB7301E00023BA
:10213C00FB73FB7B18461437BD4680BC704780B4DC
:10214C0083B000AF78600B467B8013467B707B7846
:10215C00002B03D07A887B681A6103E07B881A0411
:10216C007B681A6100BF0C37BD4680BC704700000D
:10217C0080B586B000AF78607B68002B01D101235D
:10218C0072E27B681B6803F00103002B00F0878070
:10219C00924B5B6803F00C03042B0CD08F4B5B68E9
:1021AC0003F00C03082B12D18C4B5B6803F48033C7
:1021BC00B3F5803F0BD1894B1B6803F40033002B24
:1021CC006CD07B685B68002B68D101234CE27B6888
:1021DC005B68B3F5803F06D1804B1B687F4A43F4A4
:1021EC00803313602EE07B685B68002B0CD17B4B3B
:1021FC001B687A4A23F480331360784B1B68774A48
:10220C0023F4802313601DE07B685B68B3F5A02F7B
:10221C000CD1724B1B68714A43F4802313606F4BD3
:10222C001B686E4A43F4803313600BE06B4B1B68E6
:10223C006A4A23F480331360684B1B68674A23F4A3
:10224C00802313607B685B68002B13D0FFF7B2FA16
:10225C00386108E0FFF7AEFA02463B69D31A642BEB
:10226C0001D9032300E25D4B1B6803F40033002B00
:10227C00F0D014E0FFF79EFA386108E0FFF79AFA05
:10228C0002463B69D31A642B01D90323ECE1534B6F
:10229C001B6803F40033002BF0D100E000BF7B6817
:1022AC001B6803F00203002B63D04C4B5B6803F0FC
:1022BC000C03002B0BD0494B5B6803F00C03082B71
:1022CC001CD1464B5B6803F48033002B16D1434B77
:1022DC001B6803F00203002B05D07B681B69012BE4
:1022EC0001D00123C0E13D4B1B6823F0F8027B6851
:1022FC005B69DB00394913430B603AE07B681B696F
:10230C00002B20D0364B01221A60FFF753FA3861AC
:10231C0008E0FFF74FFA02463B69D31A022B01D9AA
:10232C000323A1E12D4B1B6803F00203002BF0D01B
:10233C002A4B1B6823F0F8027B685B69DB0027499A
:10234C0013430B6015E0264B00221A60FFF732FA9C
:10235C00386108E0FFF72EFA02463B69D31A022BCC
:10236C0001D9032380E11D4B1B6803F00203002BF2
:10237C00F0D17B681B6803F00803002B3AD07B6814
:10238C009B69002B19D0174B01221A60FFF712FA28
:10239C00386108E0FFF70EFA02463B69D31A022BAC
:1023AC0001D9032360E10D4B5B6A03F00203002BA0
:1023BC00F0D0012000F09CFA1CE00A4B00221A60BD
:1023CC00FFF7F8F938610FE0FFF7F4F902463B69C3
:1023DC00D31A022B08D9032346E100BF0010024098
:1023EC000000424280044242924B5B6A03F00203BB
:1023FC00002BE9D17B681B6803F00403002B00F071
:10240C00A6800023FB758B4BDB6903F08053002BFC
:10241C000DD1884BDB69874A43F08053D361854BE0
:10242C00DB6903F08053BB60BB680123FB75824BF7
:10243C001B6803F48073002B18D17F4B1B687E4AFA
:10244C0043F480731360FFF7B5F9386108E0FFF7C8
:10245C00B1F902463B69D31A642B01D9032303E17A
:10246C00754B1B6803F48073002BF0D07B68DB6822
:10247C00012B06D16F4B1B6A6E4A43F001031362AA
:10248C002DE07B68DB68002B0CD16A4B1B6A694A18
:10249C0023F001031362674B1B6A664A23F00403A3
:1024AC0013621CE07B68DB68052B0CD1614B1B6A4B
:1024BC00604A43F0040313625E4B1B6A5D4A43F0AF
:1024CC00010313620BE05B4B1B6A5A4A23F00103B6
:1024DC001362584B1B6A574A23F0040313627B6840
:1024EC00DB68002B15D0FFF765F938610AE0FFF7C0
:1024FC0061F902463B69D31A41F28832934201D901
:10250C000323B1E04B4B1B6A03F00203002BEED00C
:10251C0014E0FFF74FF938610AE0FFF74BF9024678
:10252C003B69D31A41F28832934201D903239BE0D1
:10253C00404B1B6A03F00203002BEED1FB7D012BF9
:10254C0005D13C4BDB693B4A23F08053D3617B685C
:10255C00DB69002B00F08780364B5B6803F00C03C3
:10256C00082B61D07B68DB69022B46D1334B0022F0
:10257C001A60FFF71FF9386108E0FFF71BF90246F4
:10258C003B69D31A022B01D903236DE0294B1B683D
:10259C0003F00073002BF0D17B681B6AB3F5803F0E
:1025AC0008D1244B5B6823F400327B689B6821497B
:1025BC0013434B601F4B5B6823F474127B68196ADE
:1025CC007B685B6A0B431B4913434B601B4B01221B
:1025DC001A60FFF7EFF8386108E0FFF7EBF80246F6
:1025EC003B69D31A022B01D903233DE0114B1B6825
:1025FC0003F00073002BF0D035E0104B00221A6072
:10260C00FFF7D8F8386108E0FFF7D4F802463B69C9
:10261C00D31A022B01D9032326E0064B1B6803F0C7
:10262C000073002BF0D11EE07B68DB69012B07D116
:10263C00012319E00010024000700040600042428B
:10264C000B4B5B68FB60FB6803F480327B681B6A96
:10265C009A4206D1FB6803F470127B685B6A9A425B
:10266C0001D0012300E0002318461837BD4680BD79
:10267C000010024080B584B000AF786039607B6890
:10268C00002B01D10123D0E06A4B1B6803F0070338
:10269C003A689A4210D9674B1B6823F007026549C8
:1026AC003B6813430B60634B1B6803F007033A68EA
:1026BC009A4201D00123B8E07B681B6803F0020347
:1026CC00002B20D07B681B6803F00403002B05D083
:1026DC00594B5B68584A43F4E06353607B681B6852
:1026EC0003F00803002B05D0534B5B68524A43F4AC
:1026FC0060535360504B5B6823F0F0027B689B681F
:10270C004D4913434B607B681B6803F00103002B9E
:10271C0040D07B685B68012B07D1474B1B6803F4E7
:10272C000033002B15D101237FE07B685B68022B03
:10273C0007D1414B1B6803F00073002B09D1012317
:10274C0073E03D4B1B6803F00203002B01D1012306
:10275C006BE0394B5B6823F003027B685B6836499E
:10276C0013434B60FFF726F8F8600AE0FFF722F8F6
:10277C000246FB68D31A41F28832934201D90323F3
:10278C0053E02D4B5B6803F00C027B685B689B008D
:10279C009A42EBD1274B1B6803F007033A689A4225
:1027AC0010D2244B1B6823F0070222493B681343C9
:1027BC000B60204B1B6803F007033A689A4201D068
:1027CC00012332E07B681B6803F00403002B08D064
:1027DC00194B5B6823F4E0627B68DB681649134392
:1027EC004B607B681B6803F00803002B09D0124B6D
:1027FC005B6823F460527B681B69DB000E49134352
:10280C004B6000F021F802460B4B5B681B0903F090
:10281C000F030A49CB5C22FA03F3094A1360094BF4
:10282C001B681846FEF784FF002318461037BD4678
:10283C0080BD00BF0020024000100240B4480008D8
:10284C000C0000201000002080B487B000AF0023E3
:10285C00FB600023BB6000237B6100237B600023B3
:10286C003B611E4B5B68FB60FB6803F00C03042BA5
:10287C0002D0082B03D027E0194B3B6127E0FB6803
:10288C009B0C03F00F03174AD35C7B60FB6803F4CB
:10289C008033002B10D0114B5B685B0C03F00103F1
:1028AC00114AD35CBB607B680D4A03FB02F2BB6828
:1028BC00B2FBF3F37B6104E07B680C4A02FB03F38D
:1028CC007B617B693B6102E0054B3B6100BF3B696F
:1028DC0018461C37BD4680BC704700BF0010024034
:1028EC0000127A00C4480008D448000800093D00D2
:1028FC0080B485B000AF78600A4B1B680A4AA2FB13
:10290C0003235B0A7A6802FB03F3FB6000BFFB68DE
:10291C005A1EFA60002BF9D100BF00BF1437BD4618
:10292C0080BC70470C000020D34D621080B582B083
:10293C0000AF78607B68002B01D1012376E07B68C7
:10294C005B6A002B08D17B685B68B3F5827F09D08A
:10295C007B680022DA6105E07B6800221A617B68E3
:10296C0000225A617B6800229A627B6893F851308E
:10297C00DBB2002B06D17B68002283F850207868EC
:10298C00FDF7B6FF7B68022283F851207B681B6839
:10299C001A687B681B6822F040021A607B685B68CF
:1029AC0003F482727B689B6803F404431A437B68CC
:1029BC00DB6803F400631A437B681B6903F00203B2
:1029CC001A437B685B6903F001031A437B689B69BC
:1029DC0003F400731A437B68DB6903F038031A4372
:1029EC007B681B6A03F0800342EA03017B689B6AE5
:1029FC0003F400527B681B680A431A607B689B696E
:102A0C001A0C7B681B6802F004025A607B681B6816
:102A1C00DA697B681B6822F40062DA617B68002249
:102A2C005A657B68012283F8512000231846083729
:102A3C00BD4680BD80B588B000AFF860B9603B6022
:102A4C001346FB80FEF7B6FEF861FB887B83FB68C0
:102A5C0093F85130DBB2012B01D002232AE1BB6881
:102A6C00002B02D0FB88002B01D1012322E1FB6853
:102A7C0093F85030012B01D102231BE1FB6801229A
:102A8C0083F85020FB68032283F85120FB68002256
:102A9C005A65FB68BA681A63FB68FA889A86FB6801
:102AAC00FA88DA86FB6800229A63FB6800229A8710
:102ABC00FB680022DA87FB6800225A64FB6800225C
:102ACC001A64FB689B68B3F5004F0FD1FB681B6859
:102ADC001A68FB681B6822F040021A60FB681B68CE
:102AEC001A68FB681B6842F480421A60FB681B681A
:102AFC001B6803F04003402B07D0FB681B681A6867
:102B0C00FB681B6842F040021A60FB68DB68B3F597
:102B1C00006F52D1FB685B68002B02D07B8B012BC2
:102B2C0045D1FB681B6B1A88FB681B68DA60FB6875
:102B3C001B6B9A1CFB681A63FB68DB8E9BB2013B18
:102B4C009AB2FB68DA8632E0FB681B689B6803F07C
:102B5C000203022B12D1FB681B6B1A88FB681B68E3
:102B6C00DA60FB681B6B9A1CFB681A63FB68DB8ED4
:102B7C009BB2013B9AB2FB68DA8618E0FEF71AFEAC
:102B8C000246FB69D31A3A689A4203D83B68B3F100
:102B9C00FF3F02D13B68002B09D1FB68012283F86F
:102BAC005120FB68002283F85020032382E0FB684D
:102BBC00DB8E9BB2002BC7D153E0FB685B68002B0C
:102BCC0002D07B8B012B47D1FB681A6BFB681B680F
:102BDC000C3312781A70FB681B6B5A1CFB681A6357
:102BEC00FB68DB8E9BB2013B9AB2FB68DA8633E062
:102BFC00FB681B689B6803F00203022B13D1FB6874
:102C0C001A6BFB681B680C3312781A70FB681B6B11
:102C1C005A1CFB681A63FB68DB8E9BB2013B9AB2B1
:102C2C00FB68DA8618E0FEF7C5FD0246FB69D31A8D
:102C3C003A689A4203D83B68B3F1FF3F02D13B6834
:102C4C00002B09D1FB68012283F85120FB6800227C
:102C5C0083F8502003232DE0FB68DB8E9BB2002B06
:102C6C00C6D1FA693968F86800F0A8FB0346002B56
:102C7C0002D0FB6820225A65FB689B68002B0AD1A6
:102C8C0000237B61FB681B68DB687B61FB681B684E
:102C9C009B687B617B69FB68012283F85120FB6890
:102CAC00002283F85020FB685B6D002B01D00123C0
:102CBC0000E0002318462037BD4680BD80B58AB0A1
:102CCC0000AFF860B9607A607B8001237B62FEF70D
:102CDC0071FD3862FB6893F85130FB77FB685B68D9
:102CEC00BB617B88FB82FB7F012B0CD0BB69B3F5EE
:102CFC00827F06D1FB689B68002B02D1FB7F042BE3
:102D0C0001D002237FE1BB68002B05D07B68002B30
:102D1C0002D07B88002B01D1012374E1FB6893F86E
:102D2C005030012B01D102236DE1FB68012283F8A5
:102D3C005020FB6893F85130DBB2042B03D0FB68B6
:102D4C00052283F85120FB6800225A65FB687A68DB
:102D5C009A63FB687A88DA87FB687A889A87FB68BB
:102D6C00BA681A63FB687A88DA86FB687A889A866E
:102D7C00FB6800221A64FB6800225A64FB681B681B
:102D8C001B6803F04003402B07D0FB681B681A68D4
:102D9C00FB681B6842F040021A60FB68DB68B3F505
:102DAC00006F7ED1FB685B68002B02D0FB8A012B85
:102DBC006CD1FB681B6B1A88FB681B68DA60FB68BC
:102DCC001B6B9A1CFB681A63FB68DB8E9BB2013B86
:102DDC009AB2FB68DA8659E0FB681B689B6803F0C3
:102DEC000203022B1BD1FB68DB8E9BB2002B16D08F
:102DFC007B6A012B13D1FB681B6B1A88FB681B6861
:102E0C00DA60FB681B6B9A1CFB681A63FB68DB8E31
:102E1C009BB2013B9AB2FB68DA8600237B62FB68AB
:102E2C001B689B6803F00103012B19D1FB68DB8F36
:102E3C009BB2002B14D0FB681B68DA68FB689B6B99
:102E4C0092B21A80FB689B6B9A1CFB689A63FB68B6
:102E5C00DB8F9BB2013B9AB2FB68DA8701237B6262
:102E6C00FEF7A8FC02463B6AD31A3A6B9A420DD87D
:102E7C003B6BB3F1FF3F09D0FB68012283F8512073
:102E8C00FB68002283F850200323BCE0FB68DB8E38
:102E9C009BB2002BA0D1FB68DB8F9BB2002B9BD18C
:102EAC0082E0FB685B68002B02D0FB8A012B71D19E
:102EBC00FB681A6BFB681B680C3312781A70FB6882
:102ECC001B6B5A1CFB681A63FB68DB8E9BB2013BC5
:102EDC009AB2FB68DA865DE0FB681B689B6803F0BE
:102EEC000203022B1CD1FB68DB8E9BB2002B17D08C
:102EFC007B6A012B14D1FB681A6BFB681B680C33C3
:102F0C0012781A70FB681B6B5A1CFB681A63FB68FF
:102F1C00DB8E9BB2013B9AB2FB68DA8600237B62A4
:102F2C00FB681B689B6803F00103012B19D1FB683C
:102F3C00DB8F9BB2002B14D0FB681B68DA68FB6834
:102F4C009B6BD2B21A70FB689B6B5A1CFB689A6322
:102F5C00FB68DB8F9BB2013B9AB2FB68DA870123DB
:102F6C007B62FEF727FC02463B6AD31A3A6B9A4205
:102F7C0003D83B6BB3F1FF3F02D13B6B002B09D164
:102F8C00FB68012283F85120FB68002283F8502053
:102F9C00032338E0FB68DB8E9BB2002B9CD1FB68D3
:102FAC00DB8F9BB2002B97D13A6A396BF86800F033
:102FBC0005FA0346002B08D0FB6820225A65FB68F3
:102FCC00002283F8502001231DE0FB689B68002B36
:102FDC000AD100233B61FB681B68DB683B61FB6823
:102FEC001B689B683B613B69FB68012283F851209D
:102FFC00FB68002283F85020FB685B6D002B01D02E
:10300C00012300E0002318462837BD4680BD000090
:10301C0080B584B000AFF860B9601346FB80FB68E4
:10302C0093F85130DBB2012B01D0022397E0BB683F
:10303C00002B02D0FB88002B01D101238FE0FB6811
:10304C0093F85030012B01D1022388E0FB68012258
:10305C0083F85020FB68032283F85120FB68002280
:10306C005A65FB68BA681A63FB68FA889A86FB682B
:10307C00FA88DA86FB6800229A63FB6800225A649D
:10308C00FB6800221A64FB6800229A87FB68002206
:10309C00DA87FB689B68B3F5004F0FD1FB681B68A0
:1030AC001A68FB681B6822F040021A60FB681B68F8
:1030BC001A68FB681B6842F480421A60FB689B6CC0
:1030CC00294ADA62FB689B6C284A9A62FB689B6C03
:1030DC00274A1A63FB689B6C00225A63FB68986C46
:1030EC00FB681B6B1946FB681B680C331A46FB68A4
:1030FC00DB8E9BB2FEF7F4FC0346002B0BD0FB6877
:10310C005B6D43F01002FB685A65FB68002283F884
:10311C005020012323E0FB681B681B6803F040036D
:10312C00402B07D0FB681B681A68FB681B6842F0D1
:10313C0040021A60FB68002283F85020FB681B6871
:10314C005A68FB681B6842F020025A60FB681B68D7
:10315C005A68FB681B6842F002025A60002318464A
:10316C001037BD4680BD00BF5D320008B731000886
:10317C007932000880B483B000AF786000BF0C37A0
:10318C00BD4680BC704780B483B000AF786000BF90
:10319C000C37BD4680BC704780B483B000AF7860FC
:1031AC0000BF0C37BD4680BC704780B586B000AF01
:1031BC0078607B685B6A7B61FEF7FCFA38617B6840
:1031CC001B681B6803F02003202B3BD07B691B681A
:1031DC005A687B691B6822F020025A607B691B6865
:1031EC005A687B691B6822F002025A603A696421B2
:1031FC00786900F0E3F80346002B05D07B695B6D22
:10320C0043F020027B695A657B699B68002B0AD1CD
:10321C000023FB607B691B68DB68FB607B691B68B8
:10322C009B68FB60FB687B690022DA867B69012264
:10323C0083F851207B695B6D002B03D07869FFF715
:10324C00ABFF02E07869FFF795FF1837BD4680BDEC
:10325C0080B584B000AF78607B685B6AFB60F8680F
:10326C00FFF791FF00BF1037BD4680BD80B584B01D
:10327C0000AF78607B685B6AFB60FB681B685A6810
:10328C00FB681B6822F003025A60FB685B6D43F01D
:10329C001002FB685A65FB68012283F85120F8681C
:1032AC00FFF77AFF00BF1037BD4680BD80B588B0F0
:1032BC0000AFF860B9603B601346FB71FEF77AFA19
:1032CC000246BB6A9B1A3A681344FB61FEF772FA1A
:1032DC00B861394B1B685B011B0DFA6902FB03F3E8
:1032EC007B6154E03B68B3F1FF3F50D0FEF762FACC
:1032FC000246BB69D31AFA699A4202D9FB69002BC0
:10330C003DD1FB681B685A68FB681B6822F0E00221
:10331C005A60FB685B68B3F5827F11D1FB689B68D0
:10332C00B3F5004F04D0FB689B68B3F5806F07D1F1
:10333C00FB681B681A68FB681B6822F040021A6065
:10334C00FB689B6AB3F5005F0FD1FB681B681A68BA
:10335C00FB681B6822F400521A60FB681B681A6831
:10336C00FB681B6842F400521A60FB68012283F868
:10337C005120FB68002283F85020032317E07B695F
:10338C00002B01D10023FB617B69013B7B61FB6856
:10339C001B689A68BB681340BA689A420CBF012339
:1033AC000023DBB21A46FB799A429BD100231846C4
:1033BC002037BD4680BD00BF0C00002080B586B014
:1033CC0002AFF860B9607A607B680093BB68012239
:1033DC000221F868FFF76AFF0346002B07D0FB6851
:1033EC005B6D43F02002FB685A65032313E07B6896
:1033FC000093BB6800228021F868FFF757FF034653
:10340C00002B07D0FB685B6D43F02002FB685A650C
:10341C00032300E0002318461037BD4680BD034649
:10342C000244934200D1704703F8011BF9E70000F6
:10343C0070B500260C4D0D4B5B1B9C10A64209D1A0
:10344C00002600F027F80A4D0A4B5B1B9C10A64285
:10345C0005D170BD55F8043B98470136EEE755F899
:10346C00043B98470136F2E7D8480008D8480008D2
:10347C00D8480008DC4800080A44914200F1FF33A8
:10348C0000D1704710B511F8014B914203F8014F70
:10349C00F9D110BDF8B500BFF8BC08BC9E4670470A
:0C34AC00F8B500BFF8BC08BC9E46704795
:1034B8005354373738392054455354000C0C0033D3
:1034C80033000000D0040D11132B3F544C180D0B82
:1034D8001F230000D0040C11132C3F44512F1F1F31
:1034E80020230000537065656420546573740000E0
:1034F800466F6E7420746573742E000048656C6C9A
:103508006F2053746576652100000000526563746E
:103518002E2F4C696E652E0046696C6C65642052CE
:103528006563742E00000000436972636C652E00A9
:1035380046696C6C6564204369722E005472696137
:103548006E676C650000000046696C6C6564205409
:1035580072690000D0000000000000009000000028
:103568000000000000000000000000000000000053
:103578000000000000000000000000000000000043
:103588000000000000000000000000000000000033
:1035980000000000E003E003E003E003E003E003D1
:1035A800E003E003C003C003C001C001C001C001C3
:1035B800C001000000000000E003E003E003000099
:1035C80000000000000000003C1E3C1E3C1E3C1E8B
:1035D8003C1E3C1E3C1E00000000000000000000D5
:1035E80000000000000000000000000000000000D3
:1035F800000000000000000000000000CE01CE0323
:10360800DE039E039C039C07FF3FFF7F3807380FAC
:10361800780F780F780EFFFFFFFFF01EF01CE01CFC
:10362800E03CE03DE0390000000000000000000040
:10363800FC03FE0FEE1FE01EE01EE01EE01EE01F72
:10364800E00FE007F003FC01FE01FE01FE01FE01B0
:10365800FE01FE01FE3DFC3FF00FE001E00100002D
:1036680000000000033E07F78FE78EE79EE3BCE308
:10367800B8E7F8E7F0F7E03FC001FF03FF07F307FB
:10368800F30FF31EF33CF338F3787FF03FE00000CC
:103698000000000000000000E007F80F780F781F16
:1036A800781F781F780FF00FE00F801FC37FC3FBD0
:1036B800E7F3F7F1F7F0FFF07FF03EF87F7CFF3F8C
:1036C800EF1F00000000000000000000E003E0031E
:1036D800E003E003E003C003C001000000000000B5
:1036E80000000000000000000000000000000000D2
:1036F80000000000000000000000000000000000C2
:103708003F007C00F001E001C003C007800780078C
:10371800800F000F000F000F000F000F000F800F29
:1037280080078007C007C003E001F0017C003F006C
:103738000F000000007E001FC007C003E001F00179
:10374800F000F000F8007800780078007800780041
:103758007800F800F000F000F001E001C003C007B5
:10376800001F007E00780000E003C003C001CE39CE
:10377800FF3F7F3F20037003F807780F3C1F380690
:103788000000000000000000000000000000000031
:103798000000000000000000000000000000000021
:1037A8000000000000000000C001C001C001C0010D
:1037B800C001C001C001FFFFFFFFC001C001C0017F
:1037C800C001C001C00100000000000000000000AE
:1037D80000000000000000000000000000000000E1
:1037E80000000000000000000000000000000000D1
:1037F8000000E003E003E003E003E001E001E00192
:10380800C00180030000000000000000000000006C
:1038180000000000000000000000FE3FFE3F000026
:103828000000000000000000000000000000000090
:103838000000000000000000000000000000000080
:103848000000000000000000000000000000000070
:1038580000000000000000000000E003E003E003B7
:10386800E003000000000000000000000F000F004F
:103878001E001E003C003C0078007800F000F000BC
:10388800E001E001C003C00380078007000F000FBC
:10389800001E001E003C003C0078007800F000008C
:1038A800F007F80F7C1F3E3E1E3C1F7C1F7C0F78E4
:1038B8000F780F780F780F780F780F781F7C1F7CA0
:1038C8001E3C3E3E7C1FF80FF00700000000000081
:1038D80000000000F000F007F03FF03FF001F001B9
:1038E800F001F001F001F001F001F001F001F00148
:1038F800F001F001F001F001F001FF3FFF3F00008F
:103908000000000000000000E00FF83F7C3C3C0095
:103918003E003E003E003C003C007C00F800F00108
:10392800E003C0078007000F001E003E003CFE3F7A
:10393800FE3F00000000000000000000F00FF81F2C
:103948007C1C3E003E003E003C003C00F800F00FAE
:10395800F80F7C003E001E001E001E001E003E00E8
:103968007C1CF81FE01F00000000000000000000A1
:103978007800F800F800F801F803F807F807780F5E
:10398800781E781E783C78787878FFFFFFFF7800FB
:1039980078007800780078007800000000000000C7
:1039A80000000000FC1FFC1FFC1F001E001E001E64
:1039B800001E001EE01FF81FFC007C003E003E00B9
:1039C8001E003E003E003C007C1CF81FE01F00006B
:1039D8000000000000000000FC01FE078E0F001F21
:1039E800001E003E003C003CF83DFC3F3E7F1F7E31
:1039F8000F3C0F3C0F3C0F3C0F3E1F1E3E1FFC0FA1
:103A0800F00300000000000000000000FF3FFF3F3F
:103A1800FF3F0F001E001E003C0038007800F00039
:103A2800F000E001E001C003C0038007800F800FB1
:103A3800000F001F001F0000000000000000000031
:103A4800F807FC0F3E1F1E1E1E3E1E3E1E1E3C1F7C
:103A5800F80FF007F80FFC1E3E3E1F3C1F7C0F7C42
:103A68000F7C1F3C3E3FFC1FF007000000000000D9
:103A780000000000F007F80F7C1E3E3C1E3C1F7C37
:103A88001F7C1F7C1F7C1F3C3F3EFF1FEF071F0052
:103A98001E001E003E003C00F838F03FE01F00000A
:103AA800000000000000000000000000000000000E
:103AB80000000000E003E003E003E0030000000072
:103AC80000000000000000000000E003E003E00345
:103AD800E0030000000000000000000000000000FB
:103AE8000000000000000000E003E003E003E00342
:103AF8000000000000000000000000000000E003DB
:103B0800E003E003E003E001E001E001C00380031B
:103B180000000000000000000000000003000F008B
:103B28003F00FC00F003C00F003F00FE003FC00F45
:103B3800F003FC003F000F0003000000000000003D
:103B4800000000000000000000000000000000006D
:103B58000000000000000000FFFFFFFF0000000061
:103B68000000FFFFFFFF0000000000000000000051
:103B7800000000000000000000000000000000003D
:103B88000000000000E000F8007E801FE007F80158
:103B98007E001F007E00F801E007801F007E00F80D
:103BA80000E000000000000000000000F01FFC3FE3
:103BB8003E381F381F381E001E003C007800F000F9
:103BC800E001C003C003C007C007000000000000F8
:103BD800C007C007C0070000000000000000000088
:103BE800F803FE0F1E1F0F3E7F3CFF78EF79C77367
:103BF800C7F38FF38FF38FF39FF39FF3FF73FF7B6D
:103C0800F779003C1C1FFC0FF803000000000000BF
:103C180000000000000000000000E003E003F007DF
:103C2800F007F007780F780F7C0E3C1E3C1E3E3CD8
:103C3800FE3FFF3F1F780F780FF007F007F00000F6
:103C48000000000000000000000000000000F83F35
:103C5800FC3F3E3C1E3C1E3C1E3C3E3C7C3CF03F38
:103C6800F83F7E3C1F3C1F3C0F3C0F3C1F3CFE3F77
:103C7800F83F000000000000000000000000000005
:103C88000000FF01FF07871F003E003C007C007812
:103C98000078007800780078007C007C003E003FC7
:103CA800831FFF07FF010000000000000000000064
:103CB800000000000000F07FFC7F7E781F781F78EE
:103CC8000F780F780F780F780F780F780F780F78B4
:103CD8001F781E787E78F87FE07F000000000000E3
:103CE80000000000000000000000FF3FFF3F003E12
:103CF800003E003E003E003E003EFE3FFE3F003ECE
:103D0800003E003E003E003E003EFF3FFF3F0000F9
:103D18000000000000000000000000000000FF1F7D
:103D2800FF1F001E001E001E001E001E001EFF1F9B
:103D3800FF1F001E001E001E001E001E001E001E8B
:103D4800001E00000000000000000000000000004D
:103D58000000FE03FF0F871F003E007C007C0078F8
:103D680000F800F87FF87FF80F780F7C0F7C0F3E83
:103D78008F1FFF0FFE03000000000000000000007E
:103D88000000000000001F7C1F7C1F7C1F7C1F7C24
:103D98001F7C1F7C1F7CFF7FFF7F1F7C1F7C1F7C7D
:103DA8001F7C1F7C1F7C1F7C1F7C00000000000004
:103DB80000000000000000000000FF3FFF3FE0039C
:103DC800E003E003E003E003E003E003E003E003D3
:103DD800E003E003E003E003E003FF3FFF3F0000F0
:103DE8000000000000000000000000000000FC1FB0
:103DF800FC1F7C007C007C007C007C007C007C003C
:103E08007C007C007C007C0078007800F838F03F6B
:103E1800C03F00000000000000000000000000009B
:103E280000001F3C1E3C3C3C783CF03CE03DE03F41
:103E3800C03F803FC03FE03FF03DF03C783C7C3CD9
:103E48003E3C1F3C0F3C000000000000000000004A
:103E5800000000000000003E003E003E003E003E24
:103E6800003E003E003E003E003E003E003E003E5A
:103E7800003E003E003EFF3FFF3F00000000000004
:103E8800000000000000000000001FF81FFC1FFCDD
:103E98003FFE3FFE3FFE7FFF77FF77FFF7F7E7F72D
:103EA800E7F3E7F3C7F307F007F007F007F00000C0
:103EB80000000000000000000000000000000F7C6F
:103EC8000F7C0F7E0F7F0F7F8F7F8F7FCF7FEF7BE2
:103ED800EF79FF79FF78FF787F783F783F781F7810
:103EE8001F78000000000000000000000000000033
:103EF8000000F007FC1F3E3E1F7C0F780F780FF87C
:103F08000FF80FF80FF80FF80FF80F780F781F7CDD
:103F18003E3EFC1FF007000000000000000000000B
:103F2800000000000000FC3FFF3F1F3E0F3E0F3E19
:103F38000F3E0F3E1F3E3F3EFC3FF03F003E003E1F
:103F4800003E003E003E003E003E00000000000033
:103F580000000000000000000000F007FC1F3E3ECB
:103F68001F7C0F780F780FF80FF80FF80FF80FF87D
:103F78000FF80F780F781F7C3E3EFC1FF8077C0077
:103F88003F000F0003000000000000000000F03FA9
:103F9800FC3F7E3C3E3C1E3C1E3C3E3C3C3CFC3CCC
:103FA800F03FE03FF03DF83C7C3C3E3C1E3C1F3C73
:103FB8000F3C0000000000000000000000000000AE
:103FC8000000FC07FE1F0E3E003C003C003C003E8B
:103FD800C01FF80FFE037F001F000F000F001F20F7
:103FE8003E3CFC3FF01F0000000000000000000005
:103FF800000000000000FFFFFFFFE003E003E00314
:10400800E003E003E003E003E003E003E003E00390
:10401800E003E003E003E003E00300000000000029
:10402800000000000000000000000F7C0F7C0F7CE7
:104038000F7C0F7C0F7C0F7C0F7C0F7C0F7C0F7C20
:104048000F7C0F7C1E3C1E3C3E3EFC1FF007000010
:10405800000000000000000000000000000007F061
:1040680007F007F80F780F7C1E3C1E3C1E3E3C1ED6
:104078003C1F781F780FF80FF007F007F007E003F0
:10408800E003000000000000000000000000000045
:10409800000003E003F003F007F0E7F3E7F3E7F3CA
:1040A800E773F77BF77FFF7F7F7F7F7F7E7F7E3F92
:1040B8003E3E3E3E3E3E0000000000000000000084
:1040C80000000000000007F80F7C1E3E3E3E3C1F2B
:1040D800F80FF007E007E003E003F007F80F7C0FA4
:1040E8007C1E3E3C1F780F780FF000000000000097
:1040F8000000000000000000000007F807780F7CAF
:104108001E3C1E3E3C1F780FF80FF007E003E0034B
:10411800E003E003E003E003E003E003E003000062
:104128000000000000000000000000000000FF7F09
:10413800FF7F0F001F003E007C00F800F000E00148
:10414800E003C007800F000F001E003E007CFF7FC9
:10415800FF7F00000000000000000000FF0780074C
:10416800800780078007800780078007800780070F
:1041780080078007800780078007800780078007FF
:1041880080078007800780078007FF07FF07000078
:1041980000780078003C003C001E001E000F000F55
:1041A80080078007C003C003E001E001F000F000D1
:1041B800780078003C003C001E001E000F000F0035
:1041C80007000000F07FF000F000F000F000F000C1
:1041D800F000F000F000F000F000F000F000F00057
:1041E800F000F000F000F000F000F000F000F00047
:1041F800F000F07FF07F0000C000C001C001E003C4
:10420800E003F007F0077807780F380F3C1E3C1ED4
:104218001E3C1E3C0F380F78077800000000000095
:104228000000000000000000000000000000000086
:104238000000000000000000000000000000000076
:104248000000000000000000000000000000000066
:10425800000000000000FFFFFFFF0000000000005A
:10426800F000000000000000000000000000000056
:104278000000000000000000000000000000000036
:104288000000000000000000000000000000000026
:104298000000000000000000000000000000000016
:1042A800F80FFC3F7C3C3E003E003E00FE07FE1F30
:1042B8003E3E3E7C3E783E7C7E7CFF3FCF1F00002A
:1042C8000000000000000000003C003C003C003CF6
:1042D800003C003CF83DFE3F3E3F1F3E0F3C0F3C7C
:1042E8000F3C0F3C0F3C0F3C1F3C1E3C3E3FFC3F2D
:1042F800F03B00000000000000000000000000008B
:104308000000000000000000FE03FF0F871F003EB2
:10431800003E003C007C007C007C003C003E003EEF
:10432800871FFF0FFE0300000000000000000000D0
:104338001F001F001F001F001F001F00FF07FF1F97
:104348003F3E1F3C1F7C1F7C1F7C1F781F781F7CF3
:104358001F7C3F3C7F3EFF1FDF0F00000000000076
:104368000000000000000000000000000000000045
:10437800F803FC0F3E1F1E3E1F3C1F7CFF7FFF7F84
:10438800007C007C003C003E071FFF0FFE0300007E
:104398000000000000000000FF01E103C003C007A7
:1043A800C007C007FF7FFF7FC007C007C007C0075F
:1043B800C007C007C007C007C007C007C007C007BD
:1043C800C00700000000000000000000000000001E
:1043D8000000000000000000EF07FF1F7F3E1F3CA9
:1043E8001F7C1F7C1F781F781F781F7C1F7C3F3C19
:1043F8007F3EFF1FDF0F1E001E001E007C38F83FA7
:10440800003C003C003C003C003C003CFC3DFE3FC6
:104418009E3F1F3F1F3E1F3C1F3C1F3C1F3C1F3C35
:104428001F3C1F3C1F3C1F3C1F3C000000000000BD
:1044380000000000F001F001000000000000000092
:10444800E07FE07FE001E001E001E001E001E00160
:10445800E001E001E001E001E001E001E00100002D
:104468000000000000000000F800F8000000000054
:1044780000000000F83FF83FF800F800F800F800E6
:10448800F800F800F800F800F800F800F800F80064
:10449800F800F800F800F000F071E07F003C003C04
:1044A800003C003C003C003C1F3C3E3C7C3CF83C53
:1044B800F03DE03DC03FC03FE03FF03DF83C7C3C74
:1044C8003E3C1F3C1F3C00000000000000000000B4
:1044D800F07FF001F001F001F001F001F001F001CE
:1044E800F001F001F001F001F001F001F001F0013C
:1044F800F001F001F001F001F001000000000000FF
:1045080000000000000000000000000000000000A3
:104518009EF7FFFFFFFFFFFFE7FBE7F9C7F1C7F1D2
:10452800C7F1C7F1C7F1C7F1C7F1C7F1C7F100007B
:104538000000000000000000000000000000000073
:1045480000000000FC3DFE3F9E3F1F3F1F3E1F3CFA
:104558001F3C1F3C1F3C1F3C1F3C1F3C1F3C1F3C7B
:104568001F3C0000000000000000000000000000E8
:104578000000000000000000F007FC1F3E3E1F3C4A
:104588001F7C0F780F780F780F780F781F7C1F3CEF
:104598003E3EFC1FF0070000000000000000000085
:1045A800000000000000000000000000F83DFE3F91
:1045B8003E3F1F3E0F3C0F3C0F3C0F3C0F3C0F3C57
:1045C8001F3C1E3E3E3FFC3FF83F003C003C003C89
:1045D800003C003C0000000000000000000000005B
:1045E800EE07FE1F7E3E1E3C1E7C1E781E781E783F
:1045F8001E781E781E7C3E7C7E3EFE1FDE0F1E004F
:104608001E001E001E001E0000000000000000002A
:10461800000000007F1FFF1FE71FC71F871F001F25
:10462800001F001F001F001F001F001F001F001F8A
:10463800001F000000000000000000000000000053
:104648000000000000000000FC07FE1F0E1E003ED8
:10465800003E003FE01FFC07FE003E001E001E005B
:104668003E3CFC3FF01F000000000000000000007E
:10467800000000000000800780078007FF7FFF7FA1
:1046880080078007800780078007800780078007EA
:1046980080078007C007FF03FF010000000000003B
:1046A8000000000000000000000000000000000002
:1046B8001E3C1E3C1E3C1E3C1E3C1E3C1E3C1E3C22
:1046C8001E3C1E3C3E3C7E3CFE3EFE1FDE0F0000B4
:1046D80000000000000000000000000000000000D2
:1046E8000000000007F00F780F781E3C1E3C1E3EAD
:1046F8003C1E3C1E780F780FF00FF007F007E00320
:10470800E0030000000000000000000000000000BE
:10471800000000000000000003F0E3F1E3F3E7F31A
:10472800F7F3F7F3F77F777F7F7F7F7F7F7F3E3ECB
:104738003E3E3E3E3E3E00000000000000000000FD
:104748000000000000000000000000000F7C1E3E7A
:104758003C3E3C1FF80FF007F007E003F007F807AE
:10476800F80F7C1E3E3E1F3C1F7800000000000032
:104778000000000000000000000000000000000031
:1047880007F80F780F7C1E3C1E3C3C1E3C1E3C1F4D
:10479800780FF80FF007F007E003E003C003C00349
:1047A800C0038007800F007F0000000000000000A9
:1047B80000000000FF3FFF3F1F003E007C00F800A4
:1047C800F001E003C007800F001F001E003CFF7FC0
:1047D800FF7F00000000000000000000FE01E00371
:1047E800C003C003C003C003E001E001E001C00151
:1047F800C003803F803FC003C001E001E001E00149
:10480800C003C003C003C003E003FE017E00000034
:10481800C001C001C001C001C001C001C001C00188
:10482800C001C001C001C001C001C001C001C00178
:10483800C001C001C001C001C001C001C001C00168
:10484800C0010000C03FE003E001E001E001E00139
:10485800C001C003C003C001E001FE00FE00E0018A
:10486800C001C003C003C001E001E001E001E001B4
:10487800E003C03F003F000000000000000000000F
:104888000000000000000000000000000000073FDA
:10489800C77FE773FFF17EF0000000000000000012
:1048A8000000000000000000000000000000000000
:1048B80000000000010203040607080902030405BA
:1048C800060708090A0B0C0D0E0F10100102000054
:0448D80031010008A2
:0448DC000D010008C2
:1048E000101A0000683500081000000000127A005D
:0848F0001000000001000000AF
:04000005080016C514
:00000001FF
